:040000000A16BB29F8
:10000800FF00030E83018316CA000A08C9008A018B
:1000180070088312A3007108A2007208A1000408E6
:10002800A4008B1CA728081C58286A08003A031D3E
:100038002028CF308316A90083126A08FF3A031DCF
:100048002828DC308316A90083126B08003A031DA8
:100058004328093083162907F20072088400000833
:10006800F000840A0008F100F00A0319F10A720886
:100078008400700880007108840A8000582883165C
:100088000B302907F200720884000008F000840A87
:100098000008F100F00A0319F10A720884007008D8
:1000A80080007108840A80008312881C9C286A08D2
:1000B800003A031D6228CF308316A90083126A080C
:1000C800FF3A031D6A28DC308316A90083126B08E7
:1000D800003A031D8628093083162907F2007208A2
:1000E80084000008F000840A0008F1000130F002E2
:1000F800031CF10372088400700880007108840AE8
:1001080080009C2883160B302907F20072088400AF
:100118000008F000840A0008F1000130F002031C16
:10012800F10372088400700880007108840A800056
:100138008312081DA028EB09881DA4280130E200BD
:100148000130C9008B102308F0002208F1002108B3
:10015800F20024088400831649088A004A0E8300A6
:06016800FF0E7F0E0900EE
:10016E00103083120313FD00FD0BBB2800000800A6
:0A017E00B7208616B720861208008D
:0C01880000000000000000000000080063
:100194008312031386110612B83003173A040313AB
:0601A4008700BF200800E7
:1001AA008312031386128615061203173A080313DD
:0601BA008700BF200800D1
:1001C0007F30831203173A05F1007108BA00711FDE
:0E01D000EC2886140611EE288610061508008D
:1001DE007F30831203173A05F0007008BA008611BB
:1001EE000612BF30F0057008BA0070177008BA001A
:0A01FE00700803138700BF200800FB
:10020800FF30831603138700C420C4208312861589
:10021800861206168616B72007080317BA00861234
:100228000612C420C4208316031387018312031700
:060238003A08F000080086
:0E023E00831603134E088A004D088200080044
:10024C007F30831203173405F0007008B4003F3080
:10025C00B5057008BA00E0203508BA00BA0CBA131C
:10026C00BA0CBA13BA0CBA13CA2003173408BA0062
:10027C00EF2004217008B90004217008B90035087A
:10028C00BA00BA0CBA13BA0CBA13BA0CBA13CA2005
:10029C0003173408BA00EF20073003173505F000B8
:1002AC007008B7007008F1000130F00071080319F4
:1002BC006329F00D7010FF3E5D297008B7007009BE
:1002CC00B80071293808B9057D293708B9047D298A
:1002DC003708B9067D293608003A0319682936080B
:1002EC00013A03196B293608023A03196E293908A9
:0602FC00BA00D520080045
:1003020083120313FB01FA01F9018030F800F10CAA
:10031200F00C031C95297408F90775080318750F6A
:10032200FA070318FB0A0310F01F9D297408FA0745
:1003320075080318750FFB07FB0CFA0CF90CF80C87
:10034200031C88297B08F3007A08F2007908F1007F
:060352007808F00008002D
:10035800831603133E08831203172A02F00083163C
:1003680003133F08031C013EF101F1024108F400A8
:10037800F501812170080317B2007108B3002B083A
:10038800BA00EF2003172C08BA00CA200317AE01E1
:10039800831603134108831203172E0203182B2A0E
:1003A8002B08BA00E0202C08BA00CA2003172B0833
:1003B800BA00EF2004217008AF0004217008AF00D4
:1003C8002B08BA00E0202C08BA00CA2003172B0813
:1003D800BA00EF2003173208831603133C07F00016
:1003E8003D080318013E831203173307F100700814
:1003F80083160313CD007108CE001F218A110A123B
:10040800F000700883120317B000B20A0319B30A88
:100418007009B100182A3108AF00242A3008AF004B
:10042800242A3008AF06242A2D08003A03190F2A77
:100438002D08013A0319122A2D08023A0319152A20
:100448002F08BA00D5200317AB0AAE0ACC292B080F
:10045800BA00E0202C08BA00CA2003172B08BA00FB
:10046800EF20FF300317B000B101472A3008AF0072
:100478003008BA00D520502A03173108AF003108D8
:10048800BA00D520502A03172D08003A03193A2A32
:0A0498002D08013A0319402A08005C
:1004A200831203172A082B0203185D2A2A08AE00BA
:1004B2002B08AA002E08AB002A082B02031C6B2A69
:1004C2002C08B4002A08B5002D08B600262103170F
:0604D200AA0A5D2A0800E1
:1004D800831203172A082B020318782A2A08AE0069
:1004E8002B08AA002E08AB002A082B02031C862A18
:1004F8002A08B4002C08B5002D08B60026210317D9
:06050800AA0A782A08008F
:10050E0083120313F801F9011030FC00710DF80D80
:10051E00F90D7408F8027508031C750FF90203181B
:10052E009F2A7408F80775080318750FF90703104A
:0A053E00F00DF10DFC0B8D2A0800F2
:1005480083120317250AAA002703AB002608AC006C
:100558002908AD006C22250AAA002703AB00280849
:10056800AC002908AD006C222608AA002808AB00B8
:100578002508AC002908AD0051222608AA00280841
:0E058800AB002708AC002908AD005122080086
:10059600683083120313F4000130F50003172508B1
:1005A600F0002608F10087227808F0007908F100AB
:1005B60070080317A5007108A6007108003C031D0A
:1005C600E62A7008B43C0318EF2A0130A700B430BD
:1005D600A502031CA603F02AA7012608003C031D5A
:1005E600F62A25085A3C0318002B2508B43CA5001A
:1005F6002608031C013EA601A6022508F0002608CF
:10060600F100F00DF10D70101530F00714300318DD
:10061600013EF107700883160313CD007108CE0062
:100626001F218A110A1283120317A80083160313C7
:10063600CD0A0319CE0A1F218A110A128312031743
:10064600A90027080319302B2808003CF0002908C8
:10065600031C013EF101F10208002808F0002908F8
:04066600F100080097
:10066A00FB09FA09F909F809F80A0319F90A031939
:08067A00FA0A0319FB0A08004B
:1006820083120317A901290825078400000803190A
:10069200602B2908250784000008AA002608AB0061
:1006A2002708AC002808AD00AC2183160313410AC9
:1006B200F000700883120317A607A90A442B08004A
:1006C200710DF80DF90D7408F8027508031C750F09
:1006D200F902F00DF10D0F30FC00710DF80DF90D5E
:1006E2007408701C7A2BF8027508031C750FF90246
:1006F2007F2BF80775080318750FF907F00DF10D38
:10070200FC0B6E2B70188B2B7408F80775080318F6
:08071200750FF9070000080053
:10071A007408F8027508031C750FF9027608031CA1
:10072A00760FFA027708031C770FFB02F30D0730E6
:10073A00FC00730DF80DF90DFA0DFB0D7408731C0E
:10074A00B42BF8027508031C750FF9027608031C0E
:10075A00760FFA027708031C770FFB02C12BF80702
:10076A0075080318750FF90776080318760FFA0744
:10077A0077080318770FFB07F30DFC0B9E2B720DFE
:10078A00F80DF90DFA0DFB0D7408731CDA2BF8023B
:10079A007508031C750FF9027608031C760FFA0216
:1007AA007708031C770FFB02E72BF8077508031875
:1007BA00750FF90776080318760FFA0777080318F2
:1007CA00770FFB07F20D0730FC00720DF80DF90DDB
:1007DA00FA0DFB0D7408721C002CF8027508031C34
:1007EA00750FF9027608031C760FFA027708031CC4
:1007FA00770FFB020D2CF80775080318750FF90718
:10080A0076080318760FFA0777080318770FFB079D
:10081A00F20DFC0BEA2B710DF80DF90DFA0DFB0D1B
:10082A007408721C262CF8027508031C750FF9024D
:10083A007608031C760FFA027708031C770FFB026F
:10084A00332CF80775080318750FF907760803188B
:10085A00760FFA0777080318770FFB07F10D0730B1
:10086A00FC00710DF80DF90DFA0DFB0D7408711CE1
:10087A004C2CF8027508031C750FF9027608031C44
:10088A00760FFA027708031C770FFB02592CF80738
:10089A0075080318750FF90776080318760FFA0713
:1008AA0077080318770FFB07F10DFC0B362C700D38
:1008BA00F80DF90DFA0DFB0D7408711C722CF80273
:1008CA007508031C750FF9027608031C760FFA02E5
:1008DA007708031C770FFB027F2CF80775080318AB
:1008EA00750FF90776080318760FFA0777080318C1
:1008FA00770FFB07F00D0730FC00700DF80DF90DAE
:10090A00FA0DFB0D7408701C982CF8027508031C6C
:10091A00750FF9027608031C760FFA027708031C92
:10092A00770FFB02A52CF80775080318750FF9074E
:10093A0076080318760FFA0777080318770FFB076C
:10094A00F00DFC0B822C7018B82C7408F807750887
:10095A000318750FF90776080318760FFA07770850
:08096A000318770FFB070800DA
:1009720083120313861006150317A7012708073CE5
:10098200031CD42C2708BA00CA200317A601260884
:100992003F3C031CD22C2508BA00D5200317A60A17
:1009A200C82CA70ABF2C06118614A7012708073CEA
:1009B200031CEC2C2708BA00CA200317A60126083C
:1009C2003F3C031CEA2C2508BA00D5200317A60ACF
:0809D200E02CA70AD72C080055
:1009DA0083120317A501B924A501A6017F30A70038
:1009EA003F30A8000130A900A42207308316031360
:1009FA0029078400000883120317A5003930A600CE
:100A0A000330A7000130A80041235E30A50034302E
:0E0A1A00A6000430A7000130A8004123080008
:100A2800831203137408003A031D2F2D7508003A2A
:100A3800031D2F2D7608003A031D2F2D7708003A45
:100A4800031D2F2DFF30F000FF30F100FF30F200C2
:100A58007F30F300080083120313FC01F71BFC0A24
:100A6800FD01FB01FA01F901F80173087204710430
:100A780070040319C32D73087706A000A01BFD0995
:100A8800F71F512DF409F509F609F709F40A0319B6
:100A9800F50A0319F60A0319F70AF31F5E2DF00980
:100AA800F109F209F309F00A0319F10A0319F20A24
:100AB8000319F30A73087704A000A01B7F2D8D2368
:100AC800FC1B9C2DFD1FC32DF009F109F209F30948
:100AD800F00A0319F10A0319F20A0319F30AF809CB
:100AE800F909FA09FB09F80A0319F90A0319FA0AB4
:100AF8000319FB0AC32DF71F962DF31B902D7308BE
:100B0800FB007208FA007108F9007008F800F30198
:100B1800F201F101F001662DF301F201F101F0019A
:100B2800F00A0034F309F209F109F009FC17632D02
:100B3800F80A0319F90A0319FA0A0319FB0A7408CF
:100B48007802031D662D75087902031D662D760847
:100B58007A02031D662D77087B02031D662DFB01B3
:100B6800FA01F901F801F00A0319F10A0319F20A66
:100B78000319F30AF31F662DA0012016FF34A00104
:0A0B88007C1CC72D3523003E080039
:100B9200831203132230FC00F801F901FA01FB0170
:100BA200FC030319FF2D0310FB0CFA0CF90CF80CD3
:100BB200F30CF20CF10CF00C031CD12DFC03031905
:100BC200F12D7408F80775080318750FF9077608F0
:100BD2000318760FFA0777080318770FFB07D52D4E
:100BE2007408F80775080318750FF90776080318D3
:0E0BF200760FFA0777080318770FFB07080045
:100C0000831203136A08FF3A031D092ECF3083169F
:100C1000C70083126A08003A031D112EDC308316C8
:100C2000C70083166E083F3CF1006F08031C013EAD
:100C3000F201F2027108EE007208EF00C801803084
:100C4000F000803072067002031D282E7108003CEF
:100C5000031C2D2E0230C8002E2EC8010530470778
:100C600084000008F300470884000008F2007208BE
:100C7000F000F00CF01370087302F100F201031C95
:100C8000F20380306D06F000803072067002031DA2
:100C90004B2E71086C02031C972E05304707840009
:100CA0000008F300470884000008F2007208F00012
:100CB000F00CF01370087307F100F2010318F20A48
:100CC00080307206F00080306D067002031D6A2EBF
:100CD0006C087102031C972E063047078400000839
:100CE000F10080306F06F00080307002031D7A2E14
:100CF00071086E02031C972E063047078400000817
:100D0000F000470A840000087007F100F2010318A0
:100D1000F20A80307206F00080306F067002031D08
:100D2000932E6E087102031C972E0130C800053007
:100D3000470784000008F3000230470784000008DA
:100D4000F2007208F000F00CF01370087302F1006A
:100D5000F201031CF20380306D06F0008030720651
:100D60007002031DB52E71086C02031C012F0530A3
:100D7000470784000008F30002304707840000089A
:100D8000F2007208F000F00CF01370087307F10025
:100D9000F2010318F20A80307206F00080306D060E
:100DA0007002031DD52E6C087102031C012F470A27
:100DB00084000008F10080306F06F000803070027F
:100DC000031DE42E71086E02031C012F470A8400E4
:100DD0000008F00003304707840000087007F100A6
:100DE000F2010318F20A80307206F00080306F06BC
:100DF0007002031DFD2E6E087102031C012F0130CD
:100E0000C8002208F000F00CF01370082402F10072
:100E1000F201031CF20380306D06F0008030720690
:100E20007002031D152F71086C02031C4C2F220841
:100E3000F000F00CF01370082407F100F201031821
:100E4000F20A80307206F00080306D067002031DD9
:100E50002B2F6C087102031C4C2F80306F06F000A2
:100E600080307002031D362F25086E02031C4C2FA4
:100E700023082507F100F2010318F20A80307206F8
:100E8000F00080306F067002031D482F6E0871025B
:0E0E9000031C4C2F0330C8004808F000080077
:100E9E00831203137408003A031D5E2F7508003A7F
:100EAE00031D5E2FFF30F0007F30F100080083122B
:100EBE000313FD01F901F8017108700403190034E0
:100ECE0071087506FA00FA1BFD09FB01F51F742F58
:100EDE00F409F509F40A0319F50AF11F7B2FF0093D
:100EEE00F109F00A0319F10A71087504FA00FA1BE8
:100EFE00902F61237B18A32FFD1F0034F009F109F9
:100F0E00F00A0319F10AF809F909F80A0319F90A9E
:100F1E000034F51F9F2FF11B9B2F7108F9007008ED
:100F2E00F800F101F001832FF101F001F00A003415
:100F3E00F109F009FB0A802FF80A0319F90A74085F
:100F4E007802031D832F75087902031D832FF90183
:100F5E00F801F00A0319F10AF11F832F0000FF3484
:020F6E00080079
:100F700083120317170883160313EC006C088312FF
:100F800003171902031CD52F1608AA001808AB0076
:100F9000831603136C0883120317AC001A08AD0004
:0C0FA0006C2283160313EC0ABE2F08001D
:100FAC005A30831603136C0783120317A50083169C
:100FBC0003136D080318013E83120317A600CB22FE
:020FCC0008001B
:100FCE001F218A110A128000840ACD0A0319CE0A43
:080FDE00F003031DE72F0800DA
:101000008312031716081A02F1001708031C013E89
:101010001B02F200710883160313EC007208ED0046
:101020008312031718081C0283160313EE008312A1
:1010300003171908031C013E1D0283160313EF005A
:1010400080307206F00080307002031D29280030C5
:10105000710203183A286C08003CEC006D08031C70
:10106000013EED01ED02FF30831203179F00FF30B8
:10107000A00040288312031701309F000030A00019
:101080008030831603136F06F00080307002031D5A
:101090004B2800306E0203185C286E08003CEE00FE
:1010A0006F08031C013EEF01EF02FF3083120317AC
:1010B000A100FF30A2006228831203170130A100B3
:1010C0000030A20083160313EC0DED0D6C10EE0D35
:1010D000EF0D6E10831203171608B4001808B50040
:1010E0001E08B6008A1126218A15803083166F06E5
:1010F000F00080306D067002031D80286C086E02BF
:101100000318E6286C08F0006D08F100F10CF00CF3
:10111000F113711BF11770086E0283120317A300FD
:101120007108031C013E831603136F028312031719
:10113000A400031717081B06031DA0281A0816068B
:101140000319E52880302406F00080307002031D6A
:10115000AB2800302302031CC1282108980722086D
:101160000318013E9907831603136C0883120317B3
:10117000A302031CA403831603136D088312031731
:10118000A4021F081607F00017080318013E2007E5
:10119000F1007008960071089700831603136E081B
:1011A00083120317A307831603136F080318013E66
:1011B00083120317A4077008B4001808B5001E08AE
:1011C000B6008A1126218A1599284B290313831604
:1011D0006E08F0006F08F100F10CF00CF113711BB8
:1011E000F11770086C0283120317A3007108031C27
:1011F000013E831603136D0283120317A400031725
:1012000019081D06031D06291C08180603194B2979
:1012100080302406F00080307002031D1129003058
:101220002302031C27291F08960720080318013EE4
:101230009707831603136E0883120317A302031C78
:10124000A403831603136F0883120317A402210853
:101250001807F00019080318013E2207F100700872
:10126000980071089900831603136C088312031702
:10127000A307831603136D080318013E8312031797
:10128000A4071608B4007008B5001E08B6008A113D
:0812900026218A15FF28080041
:10129800831603132208F100F10CF11371082402DC
:1012A800F3007308A60023082507F00070083F3CE8
:1012B800F2007208A0002408F1077108A1002508AF
:1012C8003F3CF0007008BB007308831203179600B8
:1012D80072089700710898007008990001309A0008
:0812E8008A11B8278A150800DD
:1012F000831203136A08003A031D8129CF30831635
:10130000A90083126A08FF3A031D8929DC3083167D
:10131000A90083160130A7000130A8000B3029076F
:1013200084000008F100840A0008F2008030720690
:10133000F00080307002031D9F2928087102031CF1
:10134000A62B2708013A031DA62B09302907840084
:101350000008EC00840A0008ED008A11D6278A15DF
:10136000700883160313B3007108B4000030B41B77
:10137000FF30B500B6003308F0003408F10035083E
:10138000F2003608F3002808F400F501F601F70131
:101390008A11C9258A1570088316B3007108B40034
:1013A0007208B5007308B600E830F4000330F500A9
:1013B000F601F7018A1114258A1570088316B30007
:1013C0007108B4007208B5007308B6000930290727
:1013D0008400000883120317A500840A0008A600F1
:1013E0008A11CB228A15700883160313B70071087F
:1013F000B8000030B81BFF30B900BA003708F00061
:101400003808F1003908F2003A08F3002808F4001F
:10141000F501F601F7018A11C9258A1570088316AE
:10142000B7007108B8007208B9007308BA00E83054
:10143000F4000330F500F601F7018A1114258A152E
:1014400070088316B7007108B8007208B9007308F5
:10145000BA000530290784000008AF00B001B101CF
:10146000B2010030B000B100B2000630290784009C
:101470000008F000290A84000008F007F1010318B1
:10148000F10A0330290784000008F0070318F10A65
:1014900070083F3CAA007108031C013EAB01AB027F
:1014A0000030AB1BFF30AC00AD002F08F10030085E
:1014B000F2003108F3003208F4003308F107340871
:1014C0000318340FF20735080318350FF3073608F1
:1014D0000318360FF4078030F00080307406700275
:1014E000031D7C2A7308003C031D7C2A7208003C03
:1014F000031D7C2A71087F3C031C3C2B2F08F10044
:101500003008F2003108F3003208F4003308F10724
:1015100034080318340FF20735080318350FF307A2
:1015200036080318360FF40780307406F000803058
:101530007002031DA52A00307302031DA52A003086
:101540007202031DA52A00307102031C3C2B2A08DD
:10155000F1002B08F2002C08F3002D08F4003708E6
:10156000F1023808031C380FF2023908031C390F46
:10157000F3023A08031C3A0FF40280307406F000BC
:1015800080307002031DCE2A00307302031DCE2A64
:1015900000307202031DCE2A00307102031C3C2B66
:1015A0002A08F1002B08F2002C08F3002D08F400A3
:1015B0003708F1023808031C380FF2023908031CFF
:1015C000390FF3023A08031C3A0FF4028030F0009E
:1015D000803074067002031DF72A7308003C031D57
:1015E000F72A7208003C031DF72A71083F3C031CD0
:1015F0003C2B2F0883120317960083160313300821
:10160000831203179700831603132A088312031704
:101610009800831603132B0883120317990083166F
:10162000031333082F07831203179A00831603133B
:1016300030080318013E3407831203179B008316FA
:10164000031337082A02831203179C000030831605
:101650000313BA1BFF30031C013E831203179D01C5
:101660009D02003083160313AD1BFF308312031756
:101670009D0701309E0000208316031333082F07B7
:10168000EC0030080318013E3407ED0037082A0249
:10169000EE000030BA1BFF30031C013EEF01EF02E9
:1016A0000030AD1BFF30EF078A1100268A15700845
:1016B000AE007008013A031D652B8A11ED248A15CE
:1016C00083160313A7018312BB0183162E08033A66
:1016D000031D782BA7013C3083120317A500193096
:1016E000A6000430A7000130A8008A1141238A1502
:1016F000831603133308AF0734080318340FB007F9
:1017000035080318350FB10736080318360FB2072E
:101710003708AA023808031C380FAB023908031C2B
:10172000390FAC023A08031C3A0FAD020230FB003D
:101730004530FC00A930FD00FD0B9C2BFC0B9C2BC5
:10174000FB0B9C2B00000000A80A8E290130A7008B
:101750000330290784000008F000F101F201F301D1
:101760003708F4003808F5003908F6003A08F700A1
:101770007008F40771080318710FF5077208031851
:10178000720FF60773080318730FF707290A84000E
:101790000008F000F101F201F3017008F40771088C
:1017A0000318710FF50772080318720FF607730814
:1017B0000318730FF7070630290784000008F000AC
:1017C000F101F201F3017408F00775080318750FB1
:1017D000F10776080318760FF20777080318770FDA
:1017E000F307E830F4000330F500F601F7018A1141
:1017F000C9258A157008EC007108ED007208EE002A
:101800007308EF000930831629078400000883124B
:101810000317A500840A0008A6008A11CB228A15A6
:101820007008F4007108F5000030F51BFF30F60079
:10183000F70003136C08F0006D08F1006E08F20069
:101840006F08F3008A1114258A157008EC007108DE
:10185000ED007208EE007308EF0001308316A80057
:10186000803083126F06F00080307002031D442C1C
:1018700000306E02031D442C00306D02031D442C09
:101880008316280883126C02031CB92D83162708BF
:10189000013A031DB92D0930290784000008EC0026
:1018A000840A0008ED008A11D6278A15700883166D
:1018B0000313B3007108B4000030B41BFF30B5004F
:1018C000B6003308F0003408F1003508F20036089D
:1018D000F3002808F400F501F601F7018A11C92583
:1018E0008A1570088316B3007108B4007208B50039
:1018F0007308B600E830F4000330F500F601F70194
:101900008A1114258A1570088316B3007108B40073
:101910007208B5007308B600093029078400000872
:1019200083120317A500840A0008A6008A11CB229F
:101930008A15700883160313B7007108B8000030C9
:10194000B81BFF30B900BA003708F0003808F100C2
:101950003908F2003A08F3002808F400F501F6010E
:10196000F7018A11C9258A1570088316B700710816
:10197000B8007208B9007308BA00E830F400033008
:10198000F500F601F7018A1114258A1570088316EF
:10199000B7007108B8007208B9007308BA002F08C0
:1019A000F1003008F2003108F3003208F400330887
:1019B000F10734080318340FF20735080318350F00
:1019C000F30736080318360FF4078030F000803034
:1019D00074067002031DF62C7308003C031DF62CE0
:1019E0007208003C031DF62C71087F3C031C5C2D23
:1019F00083162F08F1003008F2003108F300320896
:101A0000F4003308F10734080318340FF2073508DF
:101A10000318350FF30736080318360FF407803024
:101A20007406F00080307002031D202D0030730218
:101A3000031D202D00307202031D202D0030710285
:101A4000031C5C2D83162F08831203179600831640
:101A500003133008831203179700831603132A0811
:101A6000831203179800831603132B08831203179E
:101A700099008316031333082F07831203179A0064
:101A80008316031330080318013E3407831203172B
:101A90009B008316031337082A07831203179C0041
:101AA000831603132B080318013E3807831203170C
:101AB0009D0001309E0000208316031333082F077A
:101AC000EC0030080318013E3407ED0037082A0700
:101AD000EE002B080318013E3807EF008A1100269C
:101AE0008A157008AE007008013A031D802D8A1116
:101AF000ED248A1583160313A7018312BB01A72DBA
:101B000083162E08023A031D932D253083120317E6
:101B1000A5001930A6000430A7000130A8008A11E2
:101B200041238A15A72D831603132E08033A031D9C
:101B3000A72DA701303083120317A5001930A60086
:101B40000430A7000130A8008A1141238A15023011
:101B5000FB004530FC00A930FD00FD0BAD2DFC0B5A
:101B6000AD2DFB0BAD2D0000000083160313A80A5A
:101B7000302C83163308AF0734080318340FB0072E
:101B800035080318350FB10736080318360FB207AA
:101B90003708AA0738080318380FAB0739080318A5
:101BA000390FAC073A0803183A0FAD071A30FB009B
:101BB0005E30FC006E30FD00FD0BDC2DFC0BDC2DDF
:101BC000FB0BDC2D00008312EA090130C90008007C
:101BD0000530831603136B07F700770884000008AD
:101BE000F3006B0884000008F2007208F000F00CAB
:101BF000F01370087302F6007608A60006306B0733
:101C0000F500750884000008F0006B0A84000008E5
:101C1000F00770083F3CF4007408A00077088400C7
:101C20000008F3006B0884000008F2007208F0005E
:101C3000F00CF01370087307F1007108A10075082B
:101C4000840000083F3CF0007008BB007608831257
:101C5000031796007408970071089800700899009F
:101C600001309A008A11B8278A15043083160313AD
:101C70006B0784000008260783120317B40083163D
:101C800003133B0A83120317B50003134A08031713
:101C9000B6008A1126218A15043083166B0784004A
:101CA0000008210283120317B400831603133B0AB2
:101CB00083120317B50003134A080317B6008A11ED
:101CC00026218A1583166B0884000008F000023074
:101CD0006B07840000087002F300F401031CF40396
:101CE0007308F0007408F100F10CF00CF113711B93
:101CF000F1177008C40070082607831203179600B6
:101D00000330831603136B0784000008200283123C
:101D10000317970070088316031321028312031719
:101D200098008316031320088312031799000130CB
:101D30009A008A11B8278A150930831603136B0796
:101D400084000008EC00840A0008ED008A11D62700
:101D50008A150830831603136B0784000008F2000D
:101D60007208F400F5018A1181218A15E830F40027
:101D70000330F5008A114F278A1570088316C500B5
:101D80007108C60009306B0784000008831203172E
:101D9000A500840A0008A6008A11CB228A15083003
:101DA000831603136B0784000008F2007208F40026
:101DB000F5018A1181218A15E830F4000330F5001D
:101DC0008A114F278A1570088316C2007108C30054
:101DD00005306B0784000008F700770883120317AB
:101DE000960097010630831603136B0784000008E2
:101DF000F2006B0A840000087207F500F601031870
:101E0000F60A03306B0784000008F40074087507B5
:101E1000F20076080318013EF300F20A0319F30AF0
:101E200072083F3C8312031798007308031C013E9D
:101E30009901990283160313450877078312031744
:101E40009A0000300318013E8316031346078312DD
:101E500003179B007508F00776080318013EF10789
:101E60007408F0070318F10AF00A0319F10A700860
:101E70003F3C9C007108031C013E9D019D02013006
:061E80009E000020080096
:101E860083160313560883120317A5000B30A6000A
:101E9600A7010130A8008A1141238A1503136A0895
:101EA600003A031D612F4B080317AA000230AB004E
:101EB600AC010130AD008A11AC218A1583160313DB
:101EC600630883120317A5006F30A600A70101302F
:101ED600A8008A1141238A1503136A08FF3A031DD5
:101EE6007F2F4B080317AA006430AB00AC0101300A
:101EF600AD008A11AC218A1583120317AA017F301F
:101F0600AB000830AC0003134A080317AD008A1172
:061F16006C228A15080090
:101F1C0083120317100883160313BC0083120317D4
:101F2C00110883160313BD008312031714088316BC
:101F3C000313BE0083120317150883160313BF0087
:101F4C0083120317120883160313C100831203179D
:0A1F5C00130883160313C0000800E9
:101F660083160313061386128611061286100611AF
:101F760083120613831687018312861106128610B2
:101F8600061506173F3087008A11BF208A15C03014
:101F960087008A11BF208A15861406113F308700F4
:101FA6008A11BF208A15C03087008A11BF208A1582
:101FB60005308316C1000730C0003530BC00123032
:0C1FC600BD002030BE000030BF0008004D
:101FD40025308400473083120313F000CB3083167E
:0E1FE400CD001430CE008A11E7278A150800C0
:102000000E3083120317A5000B30A6007230A70014
:102010000D30A8000130A9000A12A4220A160E30C1
:10202000A5000F30A6007230A7001130A8000130C3
:10203000A9000A12A4220A1603136A08003A031D13
:102040002A2883165808CB005908CC005A08E90002
:102050005B08EA0083126A08FF3A031D3C288316D6
:102060006508B43CCB006608031C013ECC01CC02E1
:102070006708E9006808EA000F308312031796002A
:10208000003097000C30980000309900831603133D
:102090004B080F3E831203179A0000300318013ECD
:1020A000831603134C07831203179B000C309C000C
:1020B00000309D0001309E008A150A1200208A110E
:1020C0000A160F3083120317960000309700103065
:1020D0009800003099008316031369080F3E83129D
:1020E00003179A0000300318013E831603136A0792
:1020F000831203179B0010309C0000309D000130BC
:102100009E008A150A1200208A110A1683120313F0
:102110006B08003A031D9A2806300317A5000B3000
:10212000A6000830A7000D30A8000130A9000A124F
:10213000A4220A1603136B08FF3A031DAD280630CC
:102140000317A5000F30A6000830A7001130A80023
:102150000130A9000A12A4220A160317AA017F302F
:10216000AB001430AC0003134A080317AD000A1289
:062170006C220A160800B3
:1021760083120313E90A6908013A031DFF280F3089
:102186008316CF000430D0000630D1000230D200D2
:102196000730D4000130D5000230D3006330D600BA
:1021A6001E30D8000030D9001E30DA000030DB00C7
:1021B6000C30D7000F30DC000430DD000630DE00C6
:1021C6000230DF007830E1000130E2000230E0004A
:1021D6006630E3009630E5000030E6005030E70058
:1021E6000030E8000C30E4004030A400A5010A30BD
:1021F600A2001E30A300BA2983126908023A031D01
:1022060041290F308316CF000430D0000630D100AC
:102216000230D2000730D4000130D5000230D3009E
:102226005530D6003230D8000030D9004130DA00BF
:102236000030DB000C30D7000F30DC000430DD004E
:102246000630DE000230DF007830E1000130E200C7
:102256000230E0005830E3008C30E500E6011E3025
:10226600E7000030E8000C30E4005030A4000A30EB
:10227600A5000A30A2001430A300BA298312690807
:10228600033A031D83290F308316CF000430D00094
:102296000630D1000230D2000730D4000130D5001C
:1022A6000230D3005230D6000F30D8000030D900AB
:1022B6003230DA000030DB000C30D7000F30DC00A3
:1022C6000430DD000630DE000230DF007830E10049
:1022D6000A30E2000230E0004C30E300A530E500B1
:1022E6000030E6005030E7000030E8000C30E40033
:1022F6003230A400A5010A30A2001E30A300BA297C
:1023060083160F30CF000430D0000630D1000230E3
:10231600D2000730D4000F30D5000230D3004F3042
:10232600D6001E30D8000030D9004130DA00003027
:10233600DB000C30D7000F30DC000430DD00063047
:10234600DE000230DF006430E1000130E2000230DE
:10235600E0005B30E3009630E5000030E6005030E8
:10236600E7000030E8000C30E4008312E9010800C1
:102376008A150A12EA278A110A16013083160313F0
:102386008600FF3088008A150A12B3278A110A16BA
:1023960083120317A5010A12B9240A160030900009
:1023A60018309100083092000730930020309400D6
:1023B600003095008A150A128E278A110A16831292
:1023C6003B08003A031DEE29BB2090308B000130FC
:1023D60083120313BB003B08013A0319F329E229D0
:1023E6004908013A031D322A0317A5010A12B92426
:1023F6000A16A5010830A6007F30A7003F30A800C6
:102406000130A9000A12A4220A168A150A124327C5
:102416008A110A160020CF3083160313EB008A15A3
:102426000A12E8258A110A16DC3083160313EB001C
:102436008A150A12E8258A110A168A150A124C21EB
:102446008A110A1683120313C9016208013A031D91
:10245600322A8A150A1278218A110A16E201EE2911
:02246600332A17
:10246A0000340034003400340034003400345F3463
:10247A000034003400340734003407340034143490
:10248A007F3414347F34143424342A347F342A3485
:10249A0012342334133408346434623436344934FD
:1024AA0055342234503400340534033400340034B3
:1024BA0000341C3422344134003400344134223490
:1024CA001C34003408342A341C342A3408340834BE
:1024DA0008343E340834083400345034303400347C
:1024EA0000340834083408340834083400343034EA
:1024FA0030340034003420341034083404340234C4
:10250A003E345134493445343E34003442347F3405
:10251A00403400344234613451344934463421342D
:10252A00413445344B3431341834143412347F3442
:10253A001034273445344534453439343C344A342C
:10254A00493449343034013471340934053403349C
:10255A0036344934493449343634063449344934F2
:10256A0029341E340034363436340034003400340E
:10257A0056343634003400340034083414342234E7
:10258A004134143414341434143414344134223499
:10259A001434083400340234013451340934063412
:1025AA0032344934793441343E347E34113411346E
:1025BA0011347E347F3449344934493436343E3414
:1025CA0041344134413422347F3441344134223459
:1025DA001C347F3449344934493441347F34093412
:1025EA000934013401343E344134413451343234F3
:1025FA007F340834083408347F34003441347F345B
:10260A00413400342034403441343F3401347F347F
:10261A0008341434223441347F3440344034403452
:10262A0040347F340234043402347F347F34043437
:10263A00083410347F343E344134413441343E341A
:10264A007F3409340934093406343E344134513470
:10265A0021345E347F3409341934293446344634FB
:10266A004934493449343134013401347F34013432
:10267A0001343F344034403440343F341F34203432
:10268A00403420341F347F342034183420347F34CB
:10269A00633414340834143463340334043478341B
:1026AA0004340334613451344934453443340034F6
:1026BA0000347F3441344134023404340834103451
:1026CA002034413441347F34003400340434023439
:1026DA000134023404344034403440344034403409
:1026EA000034013402340434003420345434543471
:1026FA00543478347F3448344434443438343834A5
:10270A00443444344434203438344434443448342B
:10271A007F343834543454345434183408347E34BE
:10272A0009340134023408341434543454343C34F3
:10273A007F340834043404347834003444347D3427
:10274A00403400342034403444343D3400340034BE
:10275A007F34103428344434003441347F344034D4
:10276A0000347C3404341834043478347C34083427
:10277A0004340434783438344434443444343834F3
:10278A007C341434143414340834083414341434AF
:10279A0018347C347C34083404340434083448341F
:1027AA00543454345434203404343F34443440349C
:1027BA0020343C344034403420347C341C342034BB
:1027CA00403420341C343C344034303440343C34BB
:1027DA00443428341034283444340C3450345034BB
:1027EA0050343C344434643454344C344434003427
:1027FA000834363441340034003400347F34003431
:10280A00003400344134363408340034083408348F
:10281A002A341C34083408341C342A340834083462
:10282A000034003411340034233400343434003496
:10283A004634003457340034683400347A3400346F
:10284A008B3400349C340034AE340034BF3400344A
:10285A00D0340034E1340034F23400340334013427
:10286A001434013424340134353401344534013408
:10287A0056340134663401347634013487340134F1
:10288A0097340134A6340134B6340134C6340134E1
:10289A00D5340134E5340134F434013403340234D8
:1028AA0012340234203402342F3402343D340234D8
:1028BA004C3402345A3402346734023475340234E4
:1028CA0083340234903402349D340234AA340234FC
:1028DA00B6340234C3340234CF340234DB34023423
:1028EA00E7340234F2340234FE3402340934033455
:1028FA00143403341E340334293403343334033494
:10290A003D340334463403345034033459340334E5
:10291A00623403346A340334733403347B34033447
:10292A00833403348A3403349134033498340334BB
:10293A009F340334A5340334AB340334B134033441
:10294A00B7340334BC340334C1340334C6340334D7
:10295A00CA340334CE340334D2340334D534033482
:10296A00D9340334DC340334DE340334E03403343E
:10297A00E2340334E4340334E6340334E73403340E
:0C298A00E7340334E8340334E834033449
:1029960059346F34753420344D3469347334733498
:0629A600653464340034C6
:1029AC0059346F34753420344D3469347334733482
:0629BC00653464340034B0
:0229C2000034DF
:1029C40059346F34753420344F3420344D346934E1
:0A29D4007334733465346434003446
:0229DE000134C2
:0229E0000134C0
:0229E2003E3481
:0629E400543432340034CB
:0629EA00543431340034C6
:0629F000543431340034C0
:0629F600543431340034BA
:0629FC00543432340034B3
:062A0200543432340034AC
:082A080057346F346E340034C2
:022A1000003490
:062A12005434313400349D
:062A180054343234003496
:022A1E00003482
:022A2000003480
:022A220000347E
:103000000034003400340034003400340034003420
:10301000003406345F345F34063400340034003446
:1030200000340734073400340734073400340034E4
:1030300014347F347F3414347F347F3414340034B8
:1030400024342E346B346B343A341234003400346C
:1030500046346634303418340C3466346234003408
:1030600030347A344F345D3437347A344834003471
:1030700004340734033400340034003400340034A2
:1030800000341C343E3463344134003400340034A2
:103090000034413463343E341C3400340034003492
:1030A00008342A343E341C341C343E342A34083468
:1030B000083408343E343E340834083400340034D4
:1030C00000348034E03460340034003400340034A0
:1030D0000834083408340834083408340034003420
:1030E0000034003460346034003400340034003480
:1030F0006034303418340C34063403340134003472
:103100003E347F34713459344D347F343E3400348E
:10311000403442347F347F3440344034003400340F
:1031200062347334593449346F34663400340034B3
:1031300022346334493449347F3436340034003423
:1031400018341C34163453347F347F3450340034F4
:1031500027346734453445347D3439340034003401
:103160003C347E344B3449347934303400340034C8
:1031700003340334713479340F34073400340034A9
:1031800036347F34493449347F34363400340034A3
:1031900006344F34493469343F341E34003400342B
:1031A00000340034663466340034003400340034B3
:1031B00000348034E63466340034003400340034A3
:1031C00008341C3436346334413400340034003461
:1031D0002434243424342434243424340034003477
:1031E00000344134633436341C3408340034003441
:1031F00002340334513459340F340634003400346B
:103200003E347F3441345D345D341F341E34003429
:103210007C347E34133413347E347C3400340034F4
:1032200041347F347F34493449347F343634003478
:103230001C343E346334413441346334223400342A
:1032400041347F347F34413463343E341C340034A1
:1032500041347F347F3449345D3441346334003445
:1032600041347F347F3449341D3401340334003415
:103270001C343E346334413451347334723400347A
:103280007F347F34083408347F347F340034003492
:10329000003441347F347F3441340034003400340E
:1032A00030347034403441347F343F34013400349E
:1032B00041347F347F3408341C3477346334003431
:1032C00041347F347F3441344034603470340034CE
:1032D0007F347F340E341C340E347F347F3400341A
:1032E0007F347F3406340C3418347F347F34003418
:1032F0001C343E346334413463343E341C34003473
:1033000041347F347F34493409340F340634003477
:103310001E343F34213471347F345E340034003441
:1033200041347F347F34093419347F3466340034B7
:1033300026346F344D34593473343234003400340D
:10334000033441347F347F34413403340034003457
:103350007F347F34403440347F347F340034003451
:103360001F343F34603460343F341F340034003441
:103370007F347F343034183430347F347F34003439
:10338000433467343C3418343C34673443340034B9
:1033900007344F34783478344F34073400340034F1
:1033A00047346334713459344D34673473340034E2
:1033B00000347F347F3441344134003400340034ED
:1033C0000134033406340C3418343034603400349F
:1033D0000034413441347F347F34003400340034CD
:1033E00008340C340634033406340C340834003406
:1033F000803480348034803480348034803480342D
:10340000003400340334073404340034003400340E
:1034100020347434543454343C34783440340034DC
:1034200041347F343F3448344834783430340034C5
:1034300038347C34443444346C342834003400341C
:1034400030347834483449343F347F3440340034A5
:1034500038347C34543454345C34183400340034FC
:1034600048347E347F344934033402340034003429
:103470009834BC34A434A434F8347C340434003498
:1034800041347F347F34083404347C34783400345D
:10349000003444347D347D3440340034003400340E
:1034A0006034E03480348034FD347D3400340034C2
:1034B00041347F347F34103438346C344434003435
:1034C000003441347F347F344034003400340034DD
:1034D0007C347C34183438341C347C3478340034F4
:1034E0007C347C34043404347C3478340034003448
:1034F00038347C34443444347C343834003400343C
:103500008434FC34F834A43424343C341834003487
:1035100018343C342434A434F834FC348434003477
:1035200044347C3478344C3404341C34183400343F
:1035300048345C3454345434743424340034003407
:10354000003404343E347F344434243400340034B2
:103550003C347C34403440343C347C34403400349B
:103560001C343C34603460343C341C34003400344B
:103570003C347C347034383470347C343C34003423
:1035800044346C343834103438346C3444340034BB
:103590009C34BC34A034A034FC347C34003400347B
:1035A0004C34643474345C344C346434003400344B
:1035B000083408343E347734413441340034003424
:1035C000003400340034773477340034003400346D
:1035D0004134413477343E34083408340034003404
:1035E000023403340134033402340334013400342C
:1035F000703478344C3446344C347834703400347D
:103600000E349F349134B134FB344A3400340034E6
:103610003A347A34403440347A347A3440340034A2
:1036200038347C34543455345D3419340034003427
:10363000023423347534553455347D347B3442346C
:1036400021347534543454347D3479344034003466
:1036500021347534553454347C3478344034003457
:1036600020347434573457347C3478344034003444
:1036700018343C34A434A434E434403400340034EA
:1036800002343B347D34553455345D341B340234BC
:1036900039347D34543454345D34193400340034B6
:1036A00039347D34553454345C34183400340034A7
:1036B000013445347C347C344134013400340034EA
:1036C0000234033445347D347D34433402340034D1
:1036D000013445347D347C344034003400340034CB
:1036E00079347D341634123416347D347934003410
:1036F000703478342B342B34783470340034003404
:1037000044347C347C3455345534453400340034EE
:1037100020347434543454347C347C34543454342D
:103720007C347E340B3409347F347F3449340034A4
:1037300032347B34493449347B34323400340034FD
:1037400032347A34483448347A34323400340034F1
:1037500032347A344A3448347834303400340034E3
:103760003A347B34413441347B347A34403400344D
:103770003A347A3442344034783478344034003443
:103780009A34BA34A034A034FA347A340034003491
:10379000013419343C34663466343C341934013411
:1037A0003D347D34403440347D343D340034003485
:1037B00018343C342434E734E734243424340034DB
:1037C00068347E347F3449344334663420340034E2
:1037D0002B342F34FC34FC342F342B34003400349D
:1037E000FF34FF34093409342F34F634F834A0346C
:1037F0004034C0348834FE347F3409340334023416
:1038000020347434543455347D34793440340034A5
:10381000003444347D347D34413400340034003489
:103820003034783448344A347A3432340034003412
:1038300038347834403442347A347A344034003482
:103840007A347A340A340A347A34703400340034E6
:103850007D347D34193431347D347D34003400348A
:10386000003426342F3429342F342F3428340034B4
:10387000003426342F3429342F34263400340034D5
:10388000303478344D3445346034203400340034DE
:1038900038343834083408340834083400340034F8
:1038A00008340834083408343834383400340034E8
:1038B0004F346F3430341834CC34EE34BB3491345C
:1038C0004F346F34303418346C347634FB34F9347C
:1038D0000034003400347B347B3400340034003452
:1038E00008341C343634223408341C343634223440
:1038F000223436341C340834223436341C34083430
:10390000AA34003455340034AA3400345534003419
:10391000AA345534AA345534AA345534AA3455340B
:10392000DD34FF34AA347734DD34AA34FF347734FD
:10393000003400340034FF34FF34003400340034E9
:10394000103410341034FF34FF34003400340034A9
:10395000143414341434FF34FF340034003400348D
:1039600010341034FF34FF340034FF34FF3400349B
:1039700010341034F034F0341034F034F0340034B7
:10398000143414341434FC34FC3400340034003463
:1039900014341434F734F7340034FF34FF34003473
:1039A00000340034FF34FF340034FF34FF3400347B
:1039B00014341434F434F4340434FC34FC3400345B
:1039C000143414341734173410341F341F340034B3
:1039D000103410341F341F3410341F341F3400349B
:1039E0001434143414341F341F34003400340034BD
:1039F000103410341034F034F03400340034003417
:103A00000034003400341F341F34103410341034A8
:103A10001034103410341F341F3410341034103468
:103A2000103410341034F034F034103410341034B6
:103A3000003400340034FF34FF34103410341034B8
:103A40001034103410341034103410341034103456
:103A5000103410341034FF34FF3410341034103468
:103A6000003400340034FF34FF341434143414347C
:103A700000340034FF34FF340034FF34FF3410349A
:103A8000003400341F341F34103417341734143406
:103A900000340034FC34FC340434F434F43414348E
:103AA00014341434173417341034173417341434CE
:103AB00014341434F434F4340434F434F434143456
:103AC00000340034FF34FF340034F734F734143456
:103AD00014341434143414341434143414341434A6
:103AE00014341434F734F7340034F734F73414341E
:103AF0001434143414341734173414341434143480
:103B0000103410341F341F3410341F341F34103459
:103B1000143414341434F434F434143414341434A5
:103B200010341034F034F0341034F034F0341034F5
:103B3000003400341F341F3410341F341F34103449
:103B40000034003400341F341F341434143414345B
:103B5000003400340034FC34FC3414341434143491
:103B600000340034F034F0341034F034F0341034D5
:103B700010341034FF34FF341034FF34FF34103469
:103B8000143414341434FF34FF341434143414341F
:103B90001034103410341F341F3400340034003417
:103BA000003400340034F034F03410341034103465
:103BB000FF34FF34FF34FF34FF34FF34FF34FF346D
:103BC000F034F034F034F034F034F034F034F034D5
:103BD000FF34FF34FF34FF34003400340034003449
:103BE0000034003400340034FF34FF34FF34FF3439
:103BF0000F340F340F340F340F340F340F340F34AD
:103C000038347C3444346C3438346C3444340034C8
:103C1000FC34FE342A342A343E3414340034003464
:103C20007E347E34023402340634063400340034E8
:103C300002347E347E3402347E347E3402340034E6
:103C4000633477345D34493463346334003400348E
:103C500038347C3444347C343C340434043400340C
:103C60008034FE347E34203420343E341E3400341C
:103C70000434063402347E347C3406340234003496
:103C80009934BD34E734E734BD349934003400341A
:103C90001C343E346B3449346B343E341C340034B1
:103CA0004C347E347334013473347E344C340034F9
:103CB000303478344A344F347D343934003400346D
:103CC00018343C3424343C343C3424343C341834EC
:103CD0009834FC3464343C343E3427343D34183456
:103CE0001C343E346B3449344934003400340034DD
:103CF0007E347F34013401347F347E340034003428
:103D00002A342A342A342A342A342A340034003417
:103D1000443444345F345F34443444340034003435
:103D2000403451345B344E34443440340034003435
:103D3000403444344E345B34513440340034003425
:103D4000003400340034FE34FF34013407340634C8
:103D50006034E0348034FF347F3400340034003485
:103D6000083408346B346B340834083400340034BD
:103D70002434363412343634243436341234003495
:103D8000003406340F3409340F3406340034003460
:103D90000034003400341834183400340034003453
:103DA0000034003400341034103400340034003453
:103DB000103430347034C034FF34FF3401340134F3
:103DC00000341F341F3401341F341E3400340034D7
:103DD000003419341D3417341234003400340034E4
:103DE000003400343C343C343C343C340034003443
:103DF000003400340E341F34113411341F340E34A7
:02400E004A2F37
:00000001FF
